{
  "contractName": "CustomMintingContract",
  "abi": [
    {
      "inputs": [
        {
          "internalType": "address",
          "name": "nftAddress",
          "type": "address"
        },
        {
          "internalType": "address",
          "name": "freeMintNFTAddress",
          "type": "address"
        },
        {
          "internalType": "uint256",
          "name": "freeMintNFTTokenId",
          "type": "uint256"
        },
        {
          "internalType": "uint256",
          "name": "startTime",
          "type": "uint256"
        },
        {
          "internalType": "uint256",
          "name": "endTime",
          "type": "uint256"
        }
      ],
      "stateMutability": "nonpayable",
      "type": "constructor"
    },
    {
      "anonymous": false,
      "inputs": [
        {
          "indexed": true,
          "internalType": "address",
          "name": "to",
          "type": "address"
        },
        {
          "indexed": true,
          "internalType": "uint256",
          "name": "tokenId",
          "type": "uint256"
        },
        {
          "indexed": false,
          "internalType": "uint256",
          "name": "amount",
          "type": "uint256"
        }
      ],
      "name": "Minted",
      "type": "event"
    },
    {
      "anonymous": false,
      "inputs": [
        {
          "indexed": true,
          "internalType": "address",
          "name": "previousOwner",
          "type": "address"
        },
        {
          "indexed": true,
          "internalType": "address",
          "name": "newOwner",
          "type": "address"
        }
      ],
      "name": "OwnershipTransferred",
      "type": "event"
    },
    {
      "inputs": [
        {
          "internalType": "address",
          "name": "",
          "type": "address"
        }
      ],
      "name": "discountList",
      "outputs": [
        {
          "internalType": "bool",
          "name": "",
          "type": "bool"
        }
      ],
      "stateMutability": "view",
      "type": "function",
      "constant": true
    },
    {
      "inputs": [],
      "name": "discountedMintPrice",
      "outputs": [
        {
          "internalType": "uint256",
          "name": "",
          "type": "uint256"
        }
      ],
      "stateMutability": "view",
      "type": "function",
      "constant": true
    },
    {
      "inputs": [],
      "name": "freeMintNFT",
      "outputs": [
        {
          "internalType": "contract IERC721",
          "name": "",
          "type": "address"
        }
      ],
      "stateMutability": "view",
      "type": "function",
      "constant": true
    },
    {
      "inputs": [],
      "name": "freeMintNFTTokenId",
      "outputs": [
        {
          "internalType": "uint256",
          "name": "",
          "type": "uint256"
        }
      ],
      "stateMutability": "view",
      "type": "function",
      "constant": true
    },
    {
      "inputs": [],
      "name": "mintEndTime",
      "outputs": [
        {
          "internalType": "uint256",
          "name": "",
          "type": "uint256"
        }
      ],
      "stateMutability": "view",
      "type": "function",
      "constant": true
    },
    {
      "inputs": [],
      "name": "mintStartTime",
      "outputs": [
        {
          "internalType": "uint256",
          "name": "",
          "type": "uint256"
        }
      ],
      "stateMutability": "view",
      "type": "function",
      "constant": true
    },
    {
      "inputs": [],
      "name": "owner",
      "outputs": [
        {
          "internalType": "address",
          "name": "",
          "type": "address"
        }
      ],
      "stateMutability": "view",
      "type": "function",
      "constant": true
    },
    {
      "inputs": [],
      "name": "regularMintPrice",
      "outputs": [
        {
          "internalType": "uint256",
          "name": "",
          "type": "uint256"
        }
      ],
      "stateMutability": "view",
      "type": "function",
      "constant": true
    },
    {
      "inputs": [],
      "name": "renounceOwnership",
      "outputs": [],
      "stateMutability": "nonpayable",
      "type": "function"
    },
    {
      "inputs": [],
      "name": "requiredNFT",
      "outputs": [
        {
          "internalType": "contract MyNFT",
          "name": "",
          "type": "address"
        }
      ],
      "stateMutability": "view",
      "type": "function",
      "constant": true
    },
    {
      "inputs": [
        {
          "internalType": "address",
          "name": "newOwner",
          "type": "address"
        }
      ],
      "name": "transferOwnership",
      "outputs": [],
      "stateMutability": "nonpayable",
      "type": "function"
    },
    {
      "inputs": [
        {
          "internalType": "address[]",
          "name": "accounts",
          "type": "address[]"
        }
      ],
      "name": "addToDiscountList",
      "outputs": [],
      "stateMutability": "nonpayable",
      "type": "function"
    },
    {
      "inputs": [
        {
          "internalType": "address[]",
          "name": "accounts",
          "type": "address[]"
        }
      ],
      "name": "removeFromDiscountList",
      "outputs": [],
      "stateMutability": "nonpayable",
      "type": "function"
    },
    {
      "inputs": [
        {
          "internalType": "uint8",
          "name": "trait",
          "type": "uint8"
        },
        {
          "internalType": "uint256",
          "name": "amount",
          "type": "uint256"
        }
      ],
      "name": "mint",
      "outputs": [],
      "stateMutability": "payable",
      "type": "function",
      "payable": true
    }
  ],
  "bytecode": "0x608060405266b1a2bc2ec5000060065567016345785d8a000060075534801561002757600080fd5b50604051610a22380380610a22833981016040819052610046916100fa565b61004f3361008e565b600180546001600160a01b039687166001600160a01b031991821617909155600280549590961694169390931790935550600491909155600555610148565b600080546001600160a01b038381166001600160a01b0319831681178455604051919092169283917f8be0079c531659141344cd1fd0a4f28419497f9722a3daafe3b4186f6b6457e09190a35050565b80516001600160a01b03811681146100f557600080fd5b919050565b600080600080600060a0868803121561011257600080fd5b61011b866100de565b9450610129602087016100de565b6040870151606088015160809098015196999198509695945092505050565b6108cb806101576000396000f3fe6080604052600436106100dd5760003560e01c80638da5cb5b1161007f578063a03bb37311610059578063a03bb37314610210578063dc0b2ff414610230578063f26748e214610270578063f2fde38b1461028357600080fd5b80638da5cb5b146101c6578063903f16a3146101e4578063931e2e49146101fa57600080fd5b806355515db0116100bb57806355515db0146101655780636aa1b09e14610185578063715018a61461019b578063717a002b146101b057600080fd5b806315580415146100e25780632dbb71e31461011f57806351a4b4e114610141575b600080fd5b3480156100ee57600080fd5b50600154610102906001600160a01b031681565b6040516001600160a01b0390911681526020015b60405180910390f35b34801561012b57600080fd5b5061013f61013a366004610736565b6102a3565b005b34801561014d57600080fd5b5061015760035481565b604051908152602001610116565b34801561017157600080fd5b5061013f610180366004610736565b610322565b34801561019157600080fd5b5061015760075481565b3480156101a757600080fd5b5061013f61039c565b3480156101bc57600080fd5b5061015760055481565b3480156101d257600080fd5b506000546001600160a01b0316610102565b3480156101f057600080fd5b5061015760065481565b34801561020657600080fd5b5061015760045481565b34801561021c57600080fd5b50600254610102906001600160a01b031681565b34801561023c57600080fd5b5061026061024b3660046107c0565b60086020526000908152604090205460ff1681565b6040519015158152602001610116565b61013f61027e3660046107e4565b6103b0565b34801561028f57600080fd5b5061013f61029e3660046107c0565b610613565b6102ab61068c565b60005b8181101561031d576000600860008585858181106102ce576102ce610816565b90506020020160208101906102e391906107c0565b6001600160a01b031681526020810191909152604001600020805460ff19169115159190911790558061031581610842565b9150506102ae565b505050565b61032a61068c565b60005b8181101561031d5760016008600085858581811061034d5761034d610816565b905060200201602081019061036291906107c0565b6001600160a01b031681526020810191909152604001600020805460ff19169115159190911790558061039481610842565b91505061032d565b6103a461068c565b6103ae60006106e6565b565b6004544210156104075760405162461bcd60e51b815260206004820152601760248201527f4d696e74696e6720686173206e6f74207374617274656400000000000000000060448201526064015b60405180910390fd5b60055442111561044d5760405162461bcd60e51b8152602060048201526011602482015270135a5b9d1a5b99c81a185cc8195b991959607a1b60448201526064016103fe565b6002546003546040516331a9108f60e11b8152600481019190915260009133916001600160a01b0390911690636352211e90602401602060405180830381865afa15801561049f573d6000803e3d6000fd5b505050506040513d601f19601f820116820180604052508101906104c3919061085b565b6001600160a01b0316036104d957506000610517565b3360009081526008602052604090205460ff161561050657816006546104ff9190610878565b9050610517565b816007546105149190610878565b90505b803410156105675760405162461bcd60e51b815260206004820181905260248201527f496e73756666696369656e74207061796d656e7420666f72206d696e74696e6760448201526064016103fe565b600154604051632769c3d960e11b815233600482015260ff85166024820152604481018490526001600160a01b0390911690634ed387b290606401600060405180830381600087803b1580156105bc57600080fd5b505af11580156105d0573d6000803e3d6000fd5b505060405184815260ff861692503391507f25b428dfde728ccfaddad7e29e4ac23c24ed7fd1a6e3e3f91894a9a073f5dfff9060200160405180910390a3505050565b61061b61068c565b6001600160a01b0381166106805760405162461bcd60e51b815260206004820152602660248201527f4f776e61626c653a206e6577206f776e657220697320746865207a65726f206160448201526564647265737360d01b60648201526084016103fe565b610689816106e6565b50565b6000546001600160a01b031633146103ae5760405162461bcd60e51b815260206004820181905260248201527f4f776e61626c653a2063616c6c6572206973206e6f7420746865206f776e657260448201526064016103fe565b600080546001600160a01b038381166001600160a01b0319831681178455604051919092169283917f8be0079c531659141344cd1fd0a4f28419497f9722a3daafe3b4186f6b6457e09190a35050565b6000806020838503121561074957600080fd5b823567ffffffffffffffff8082111561076157600080fd5b818501915085601f83011261077557600080fd5b81358181111561078457600080fd5b8660208260051b850101111561079957600080fd5b60209290920196919550909350505050565b6001600160a01b038116811461068957600080fd5b6000602082840312156107d257600080fd5b81356107dd816107ab565b9392505050565b600080604083850312156107f757600080fd5b823560ff8116811461080857600080fd5b946020939093013593505050565b634e487b7160e01b600052603260045260246000fd5b634e487b7160e01b600052601160045260246000fd5b6000600182016108545761085461082c565b5060010190565b60006020828403121561086d57600080fd5b81516107dd816107ab565b808202811582820484141761088f5761088f61082c565b9291505056fea2646970667358221220429a120fabfa60b5049484bfebc3b7a1a4f24ef2e57fb92efc347c2557079b9764736f6c63430008130033",
  "immutableReferences": {},
  "source": "// SPDX-License-Identifier: MIT\r\npragma solidity ^0.8.0;\r\n\r\nimport \"@openzeppelin/contracts/token/ERC721/IERC721.sol\";\r\nimport \"@openzeppelin/contracts/token/ERC1155/IERC1155.sol\";\r\nimport \"@openzeppelin/contracts/access/Ownable.sol\";\r\nimport \"./MyNFT.sol\"; // Import the MyNFT contract\r\n\r\ncontract CustomMintingContract is Ownable {\r\n    MyNFT public requiredNFT; // Change the type from IERC1155 to MyNFT\r\n    IERC721 public freeMintNFT;\r\n    uint256 public freeMintNFTTokenId;\r\n    uint256 public mintStartTime;\r\n    uint256 public mintEndTime;\r\n    uint256 public discountedMintPrice = 0.05 ether;\r\n    uint256 public regularMintPrice = 0.1 ether;\r\n\r\n    mapping(address => bool) public discountList;\r\n\r\n    event Minted(address indexed to, uint256 indexed tokenId, uint256 amount);\r\n\r\n    constructor(\r\n        address nftAddress,\r\n        address freeMintNFTAddress,\r\n        uint256 freeMintNFTTokenId,\r\n        uint256 startTime,\r\n        uint256 endTime\r\n    ) {\r\n        requiredNFT = MyNFT(nftAddress); // Change the typecast from IERC1155 to MyNFT\r\n        freeMintNFT = IERC721(freeMintNFTAddress);\r\n        freeMintNFTTokenId = freeMintNFTTokenId;\r\n        mintStartTime = startTime;\r\n        mintEndTime = endTime;\r\n    }\r\n\r\n    function addToDiscountList(address[] calldata accounts) external onlyOwner {\r\n        for (uint256 i = 0; i < accounts.length; i++) {\r\n            discountList[accounts[i]] = true;\r\n        }\r\n    }\r\n\r\n    function removeFromDiscountList(address[] calldata accounts) external onlyOwner {\r\n        for (uint256 i = 0; i < accounts.length; i++) {\r\n            discountList[accounts[i]] = false;\r\n        }\r\n    }\r\n\r\n    function mint(uint8 trait, uint256 amount) external payable {\r\n        require(block.timestamp >= mintStartTime, \"Minting has not started\");\r\n        require(block.timestamp <= mintEndTime, \"Minting has ended\");\r\n\r\n        uint256 totalPrice;\r\n\r\n        if (freeMintNFT.ownerOf(freeMintNFTTokenId) == msg.sender) {\r\n            totalPrice = 0;\r\n        } else if (discountList[msg.sender]) {\r\n            totalPrice = discountedMintPrice * amount;\r\n        } else {\r\n            totalPrice = regularMintPrice * amount;\r\n        }\r\n\r\n        require(msg.value >= totalPrice, \"Insufficient payment for minting\");\r\n\r\n        requiredNFT.mint(msg.sender, trait, amount);\r\n\r\n        emit Minted(msg.sender, trait, amount);\r\n    }\r\n}\r\n",
  "sourcePath": "C:\\minting-contract\\contracts\\CustomMintingContract.sol",
  "compiler": {
    "name": "solc",
    "version": "0.8.19+commit.7dd6d404.Emscripten.clang"
  },
  "schemaVersion": "3.4.13",
  "updatedAt": "2023-03-15T17:01:32.832Z",
  "networkType": "ethereum",
  "devdoc": {
    "kind": "dev",
    "methods": {
      "owner()": {
        "details": "Returns the address of the current owner."
      },
      "renounceOwnership()": {
        "details": "Leaves the contract without owner. It will not be possible to call `onlyOwner` functions anymore. Can only be called by the current owner. NOTE: Renouncing ownership will leave the contract without an owner, thereby removing any functionality that is only available to the owner."
      },
      "transferOwnership(address)": {
        "details": "Transfers ownership of the contract to a new account (`newOwner`). Can only be called by the current owner."
      }
    },
    "version": 1
  },
  "userdoc": {
    "kind": "user",
    "methods": {},
    "version": 1
  }
}