{
  "contractName": "MyNFT",
  "abi": [
    {
      "inputs": [
        {
          "internalType": "string",
          "name": "uri",
          "type": "string"
        }
      ],
      "stateMutability": "nonpayable",
      "type": "constructor"
    },
    {
      "anonymous": false,
      "inputs": [
        {
          "indexed": true,
          "internalType": "address",
          "name": "account",
          "type": "address"
        },
        {
          "indexed": true,
          "internalType": "address",
          "name": "operator",
          "type": "address"
        },
        {
          "indexed": false,
          "internalType": "bool",
          "name": "approved",
          "type": "bool"
        }
      ],
      "name": "ApprovalForAll",
      "type": "event"
    },
    {
      "anonymous": false,
      "inputs": [
        {
          "indexed": true,
          "internalType": "address",
          "name": "previousOwner",
          "type": "address"
        },
        {
          "indexed": true,
          "internalType": "address",
          "name": "newOwner",
          "type": "address"
        }
      ],
      "name": "OwnershipTransferred",
      "type": "event"
    },
    {
      "anonymous": false,
      "inputs": [
        {
          "indexed": true,
          "internalType": "address",
          "name": "operator",
          "type": "address"
        },
        {
          "indexed": true,
          "internalType": "address",
          "name": "from",
          "type": "address"
        },
        {
          "indexed": true,
          "internalType": "address",
          "name": "to",
          "type": "address"
        },
        {
          "indexed": false,
          "internalType": "uint256[]",
          "name": "ids",
          "type": "uint256[]"
        },
        {
          "indexed": false,
          "internalType": "uint256[]",
          "name": "values",
          "type": "uint256[]"
        }
      ],
      "name": "TransferBatch",
      "type": "event"
    },
    {
      "anonymous": false,
      "inputs": [
        {
          "indexed": true,
          "internalType": "address",
          "name": "operator",
          "type": "address"
        },
        {
          "indexed": true,
          "internalType": "address",
          "name": "from",
          "type": "address"
        },
        {
          "indexed": true,
          "internalType": "address",
          "name": "to",
          "type": "address"
        },
        {
          "indexed": false,
          "internalType": "uint256",
          "name": "id",
          "type": "uint256"
        },
        {
          "indexed": false,
          "internalType": "uint256",
          "name": "value",
          "type": "uint256"
        }
      ],
      "name": "TransferSingle",
      "type": "event"
    },
    {
      "anonymous": false,
      "inputs": [
        {
          "indexed": false,
          "internalType": "string",
          "name": "value",
          "type": "string"
        },
        {
          "indexed": true,
          "internalType": "uint256",
          "name": "id",
          "type": "uint256"
        }
      ],
      "name": "URI",
      "type": "event"
    },
    {
      "inputs": [],
      "name": "NUM_TRAITS",
      "outputs": [
        {
          "internalType": "uint8",
          "name": "",
          "type": "uint8"
        }
      ],
      "stateMutability": "view",
      "type": "function",
      "constant": true
    },
    {
      "inputs": [
        {
          "internalType": "address",
          "name": "account",
          "type": "address"
        },
        {
          "internalType": "uint256",
          "name": "id",
          "type": "uint256"
        }
      ],
      "name": "balanceOf",
      "outputs": [
        {
          "internalType": "uint256",
          "name": "",
          "type": "uint256"
        }
      ],
      "stateMutability": "view",
      "type": "function",
      "constant": true
    },
    {
      "inputs": [
        {
          "internalType": "address[]",
          "name": "accounts",
          "type": "address[]"
        },
        {
          "internalType": "uint256[]",
          "name": "ids",
          "type": "uint256[]"
        }
      ],
      "name": "balanceOfBatch",
      "outputs": [
        {
          "internalType": "uint256[]",
          "name": "",
          "type": "uint256[]"
        }
      ],
      "stateMutability": "view",
      "type": "function",
      "constant": true
    },
    {
      "inputs": [
        {
          "internalType": "address",
          "name": "account",
          "type": "address"
        },
        {
          "internalType": "address",
          "name": "operator",
          "type": "address"
        }
      ],
      "name": "isApprovedForAll",
      "outputs": [
        {
          "internalType": "bool",
          "name": "",
          "type": "bool"
        }
      ],
      "stateMutability": "view",
      "type": "function",
      "constant": true
    },
    {
      "inputs": [],
      "name": "owner",
      "outputs": [
        {
          "internalType": "address",
          "name": "",
          "type": "address"
        }
      ],
      "stateMutability": "view",
      "type": "function",
      "constant": true
    },
    {
      "inputs": [],
      "name": "renounceOwnership",
      "outputs": [],
      "stateMutability": "nonpayable",
      "type": "function"
    },
    {
      "inputs": [
        {
          "internalType": "address",
          "name": "from",
          "type": "address"
        },
        {
          "internalType": "address",
          "name": "to",
          "type": "address"
        },
        {
          "internalType": "uint256[]",
          "name": "ids",
          "type": "uint256[]"
        },
        {
          "internalType": "uint256[]",
          "name": "amounts",
          "type": "uint256[]"
        },
        {
          "internalType": "bytes",
          "name": "data",
          "type": "bytes"
        }
      ],
      "name": "safeBatchTransferFrom",
      "outputs": [],
      "stateMutability": "nonpayable",
      "type": "function"
    },
    {
      "inputs": [
        {
          "internalType": "address",
          "name": "from",
          "type": "address"
        },
        {
          "internalType": "address",
          "name": "to",
          "type": "address"
        },
        {
          "internalType": "uint256",
          "name": "id",
          "type": "uint256"
        },
        {
          "internalType": "uint256",
          "name": "amount",
          "type": "uint256"
        },
        {
          "internalType": "bytes",
          "name": "data",
          "type": "bytes"
        }
      ],
      "name": "safeTransferFrom",
      "outputs": [],
      "stateMutability": "nonpayable",
      "type": "function"
    },
    {
      "inputs": [
        {
          "internalType": "address",
          "name": "operator",
          "type": "address"
        },
        {
          "internalType": "bool",
          "name": "approved",
          "type": "bool"
        }
      ],
      "name": "setApprovalForAll",
      "outputs": [],
      "stateMutability": "nonpayable",
      "type": "function"
    },
    {
      "inputs": [
        {
          "internalType": "bytes4",
          "name": "interfaceId",
          "type": "bytes4"
        }
      ],
      "name": "supportsInterface",
      "outputs": [
        {
          "internalType": "bool",
          "name": "",
          "type": "bool"
        }
      ],
      "stateMutability": "view",
      "type": "function",
      "constant": true
    },
    {
      "inputs": [
        {
          "internalType": "address",
          "name": "newOwner",
          "type": "address"
        }
      ],
      "name": "transferOwnership",
      "outputs": [],
      "stateMutability": "nonpayable",
      "type": "function"
    },
    {
      "inputs": [
        {
          "internalType": "uint256",
          "name": "",
          "type": "uint256"
        }
      ],
      "name": "uri",
      "outputs": [
        {
          "internalType": "string",
          "name": "",
          "type": "string"
        }
      ],
      "stateMutability": "view",
      "type": "function",
      "constant": true
    },
    {
      "inputs": [
        {
          "internalType": "address",
          "name": "account",
          "type": "address"
        },
        {
          "internalType": "uint8",
          "name": "trait",
          "type": "uint8"
        },
        {
          "internalType": "uint256",
          "name": "amount",
          "type": "uint256"
        }
      ],
      "name": "mint",
      "outputs": [],
      "stateMutability": "nonpayable",
      "type": "function"
    },
    {
      "inputs": [
        {
          "internalType": "string",
          "name": "newuri",
          "type": "string"
        }
      ],
      "name": "setURI",
      "outputs": [],
      "stateMutability": "nonpayable",
      "type": "function"
    }
  ],
  "bytecode": "0x608060405260006004553480156200001657600080fd5b5060405162001c0138038062001c018339810160408190526200003991620000d2565b80620000458162000058565b5062000051336200006a565b5062000302565b600262000066828262000236565b5050565b600380546001600160a01b038381166001600160a01b0319831681179093556040519116919082907f8be0079c531659141344cd1fd0a4f28419497f9722a3daafe3b4186f6b6457e090600090a35050565b634e487b7160e01b600052604160045260246000fd5b60006020808385031215620000e657600080fd5b82516001600160401b0380821115620000fe57600080fd5b818501915085601f8301126200011357600080fd5b815181811115620001285762000128620000bc565b604051601f8201601f19908116603f01168101908382118183101715620001535762000153620000bc565b8160405282815288868487010111156200016c57600080fd5b600093505b8284101562000190578484018601518185018701529285019262000171565b600086848301015280965050505050505092915050565b600181811c90821680620001bc57607f821691505b602082108103620001dd57634e487b7160e01b600052602260045260246000fd5b50919050565b601f8211156200023157600081815260208120601f850160051c810160208610156200020c5750805b601f850160051c820191505b818110156200022d5782815560010162000218565b5050505b505050565b81516001600160401b03811115620002525762000252620000bc565b6200026a81620002638454620001a7565b84620001e3565b602080601f831160018114620002a25760008415620002895750858301515b600019600386901b1c1916600185901b1785556200022d565b600085815260208120601f198616915b82811015620002d357888601518255948401946001909101908401620002b2565b5085821015620002f25787850151600019600388901b60f8161c191681555b5050505050600190811b01905550565b6118ef80620003126000396000f3fe608060405234801561001057600080fd5b50600436106100e95760003560e01c80634ed387b21161008c578063a22cb46511610066578063a22cb465146101ef578063e985e9c514610202578063f242432a1461023e578063f2fde38b1461025157600080fd5b80634ed387b2146101b9578063715018a6146101cc5780638da5cb5b146101d457600080fd5b80630e89341c116100c85780630e89341c1461014c5780632eb2c2d61461016c578063454836ad1461017f5780634e1273f41461019957600080fd5b8062fdd58e146100ee57806301ffc9a71461011457806302fe530514610137575b600080fd5b6101016100fc366004610ef4565b610264565b6040519081526020015b60405180910390f35b610127610122366004610f34565b6102fd565b604051901515815260200161010b565b61014a610145366004610ff9565b61034d565b005b61015f61015a36600461104a565b610361565b60405161010b91906110a9565b61014a61017a366004611171565b6103f5565b610187600881565b60405160ff909116815260200161010b565b6101ac6101a736600461121b565b610441565b60405161010b9190611321565b61014a6101c7366004611334565b61056b565b61014a6105e6565b6003546040516001600160a01b03909116815260200161010b565b61014a6101fd366004611379565b6105fa565b6101276102103660046113b5565b6001600160a01b03918216600090815260016020908152604080832093909416825291909152205460ff1690565b61014a61024c3660046113e8565b610609565b61014a61025f36600461144d565b61064e565b60006001600160a01b0383166102d45760405162461bcd60e51b815260206004820152602a60248201527f455243313135353a2061646472657373207a65726f206973206e6f742061207660448201526930b634b21037bbb732b960b11b60648201526084015b60405180910390fd5b506000818152602081815260408083206001600160a01b03861684529091529020545b92915050565b60006001600160e01b03198216636cdb3d1360e11b148061032e57506001600160e01b031982166303a24d0760e21b145b806102f757506301ffc9a760e01b6001600160e01b03198316146102f7565b6103556106c4565b61035e8161071e565b50565b60606002805461037090611468565b80601f016020809104026020016040519081016040528092919081815260200182805461039c90611468565b80156103e95780601f106103be576101008083540402835291602001916103e9565b820191906000526020600020905b8154815290600101906020018083116103cc57829003601f168201915b50505050509050919050565b6001600160a01b03851633148061041157506104118533610210565b61042d5760405162461bcd60e51b81526004016102cb906114a2565b61043a858585858561072a565b5050505050565b606081518351146104a65760405162461bcd60e51b815260206004820152602960248201527f455243313135353a206163636f756e747320616e6420696473206c656e677468604482015268040dad2e6dac2e8c6d60bb1b60648201526084016102cb565b6000835167ffffffffffffffff8111156104c2576104c2610f58565b6040519080825280602002602001820160405280156104eb578160200160208202803683370190505b50905060005b84518110156105635761053685828151811061050f5761050f6114f0565b6020026020010151858381518110610529576105296114f0565b6020026020010151610264565b828281518110610548576105486114f0565b602090810291909101015261055c8161151c565b90506104f1565b509392505050565b6105736106c4565b600860ff8316106105b65760405162461bcd60e51b815260206004820152600d60248201526c125b9d985b1a59081d1c985a5d609a1b60448201526064016102cb565b6105e1838360ff166004546105cb9190611535565b8360405180602001604052806000815250610907565b505050565b6105ee6106c4565b6105f86000610a1b565b565b610605338383610a6d565b5050565b6001600160a01b03851633148061062557506106258533610210565b6106415760405162461bcd60e51b81526004016102cb906114a2565b61043a8585858585610b4d565b6106566106c4565b6001600160a01b0381166106bb5760405162461bcd60e51b815260206004820152602660248201527f4f776e61626c653a206e6577206f776e657220697320746865207a65726f206160448201526564647265737360d01b60648201526084016102cb565b61035e81610a1b565b6003546001600160a01b031633146105f85760405162461bcd60e51b815260206004820181905260248201527f4f776e61626c653a2063616c6c6572206973206e6f7420746865206f776e657260448201526064016102cb565b6002610605828261158e565b815183511461078c5760405162461bcd60e51b815260206004820152602860248201527f455243313135353a2069647320616e6420616d6f756e7473206c656e677468206044820152670dad2e6dac2e8c6d60c31b60648201526084016102cb565b6001600160a01b0384166107b25760405162461bcd60e51b81526004016102cb9061164e565b3360005b84518110156108995760008582815181106107d3576107d36114f0565b6020026020010151905060008583815181106107f1576107f16114f0565b602090810291909101810151600084815280835260408082206001600160a01b038e1683529093529190912054909150818110156108415760405162461bcd60e51b81526004016102cb90611693565b6000838152602081815260408083206001600160a01b038e8116855292528083208585039055908b1682528120805484929061087e908490611535565b92505081905550505050806108929061151c565b90506107b6565b50846001600160a01b0316866001600160a01b0316826001600160a01b03167f4a39dc06d4c0dbc64b70af90fd698a233a518aa5d07e595d983b8c0526c8f7fb87876040516108e99291906116dd565b60405180910390a46108ff818787878787610c77565b505050505050565b6001600160a01b0384166109675760405162461bcd60e51b815260206004820152602160248201527f455243313135353a206d696e7420746f20746865207a65726f206164647265736044820152607360f81b60648201526084016102cb565b33600061097385610dd2565b9050600061098085610dd2565b90506000868152602081815260408083206001600160a01b038b168452909152812080548792906109b2908490611535565b909155505060408051878152602081018790526001600160a01b03808a1692600092918716917fc3d58168c5ae7397731d063d5bbf3d657854427343f4c083240f7aacaa2d0f62910160405180910390a4610a1283600089898989610e1d565b50505050505050565b600380546001600160a01b038381166001600160a01b0319831681179093556040519116919082907f8be0079c531659141344cd1fd0a4f28419497f9722a3daafe3b4186f6b6457e090600090a35050565b816001600160a01b0316836001600160a01b031603610ae05760405162461bcd60e51b815260206004820152602960248201527f455243313135353a2073657474696e6720617070726f76616c20737461747573604482015268103337b91039b2b63360b91b60648201526084016102cb565b6001600160a01b03838116600081815260016020908152604080832094871680845294825291829020805460ff191686151590811790915591519182527f17307eab39ab6107e8899845ad3d59bd9653f200f220920489ca2b5937696c31910160405180910390a3505050565b6001600160a01b038416610b735760405162461bcd60e51b81526004016102cb9061164e565b336000610b7f85610dd2565b90506000610b8c85610dd2565b90506000868152602081815260408083206001600160a01b038c16845290915290205485811015610bcf5760405162461bcd60e51b81526004016102cb90611693565b6000878152602081815260408083206001600160a01b038d8116855292528083208985039055908a16825281208054889290610c0c908490611535565b909155505060408051888152602081018890526001600160a01b03808b16928c821692918816917fc3d58168c5ae7397731d063d5bbf3d657854427343f4c083240f7aacaa2d0f62910160405180910390a4610c6c848a8a8a8a8a610e1d565b505050505050505050565b6001600160a01b0384163b156108ff5760405163bc197c8160e01b81526001600160a01b0385169063bc197c8190610cbb908990899088908890889060040161170b565b6020604051808303816000875af1925050508015610cf6575060408051601f3d908101601f19168201909252610cf391810190611769565b60015b610da257610d02611786565b806308c379a003610d3b5750610d166117a2565b80610d215750610d3d565b8060405162461bcd60e51b81526004016102cb91906110a9565b505b60405162461bcd60e51b815260206004820152603460248201527f455243313135353a207472616e7366657220746f206e6f6e2d455243313135356044820152732932b1b2b4bb32b91034b6b83632b6b2b73a32b960611b60648201526084016102cb565b6001600160e01b0319811663bc197c8160e01b14610a125760405162461bcd60e51b81526004016102cb9061182c565b60408051600180825281830190925260609160009190602080830190803683370190505090508281600081518110610e0c57610e0c6114f0565b602090810291909101015292915050565b6001600160a01b0384163b156108ff5760405163f23a6e6160e01b81526001600160a01b0385169063f23a6e6190610e619089908990889088908890600401611874565b6020604051808303816000875af1925050508015610e9c575060408051601f3d908101601f19168201909252610e9991810190611769565b60015b610ea857610d02611786565b6001600160e01b0319811663f23a6e6160e01b14610a125760405162461bcd60e51b81526004016102cb9061182c565b80356001600160a01b0381168114610eef57600080fd5b919050565b60008060408385031215610f0757600080fd5b610f1083610ed8565b946020939093013593505050565b6001600160e01b03198116811461035e57600080fd5b600060208284031215610f4657600080fd5b8135610f5181610f1e565b9392505050565b634e487b7160e01b600052604160045260246000fd5b601f8201601f1916810167ffffffffffffffff81118282101715610f9457610f94610f58565b6040525050565b600067ffffffffffffffff831115610fb557610fb5610f58565b604051610fcc601f8501601f191660200182610f6e565b809150838152848484011115610fe157600080fd5b83836020830137600060208583010152509392505050565b60006020828403121561100b57600080fd5b813567ffffffffffffffff81111561102257600080fd5b8201601f8101841361103357600080fd5b61104284823560208401610f9b565b949350505050565b60006020828403121561105c57600080fd5b5035919050565b6000815180845260005b818110156110895760208185018101518683018201520161106d565b506000602082860101526020601f19601f83011685010191505092915050565b602081526000610f516020830184611063565b600067ffffffffffffffff8211156110d6576110d6610f58565b5060051b60200190565b600082601f8301126110f157600080fd5b813560206110fe826110bc565b60405161110b8282610f6e565b83815260059390931b850182019282810191508684111561112b57600080fd5b8286015b84811015611146578035835291830191830161112f565b509695505050505050565b600082601f83011261116257600080fd5b610f5183833560208501610f9b565b600080600080600060a0868803121561118957600080fd5b61119286610ed8565b94506111a060208701610ed8565b9350604086013567ffffffffffffffff808211156111bd57600080fd5b6111c989838a016110e0565b945060608801359150808211156111df57600080fd5b6111eb89838a016110e0565b9350608088013591508082111561120157600080fd5b5061120e88828901611151565b9150509295509295909350565b6000806040838503121561122e57600080fd5b823567ffffffffffffffff8082111561124657600080fd5b818501915085601f83011261125a57600080fd5b81356020611267826110bc565b6040516112748282610f6e565b83815260059390931b850182019282810191508984111561129457600080fd5b948201945b838610156112b9576112aa86610ed8565b82529482019490820190611299565b965050860135925050808211156112cf57600080fd5b506112dc858286016110e0565b9150509250929050565b600081518084526020808501945080840160005b83811015611316578151875295820195908201906001016112fa565b509495945050505050565b602081526000610f5160208301846112e6565b60008060006060848603121561134957600080fd5b61135284610ed8565b9250602084013560ff8116811461136857600080fd5b929592945050506040919091013590565b6000806040838503121561138c57600080fd5b61139583610ed8565b9150602083013580151581146113aa57600080fd5b809150509250929050565b600080604083850312156113c857600080fd5b6113d183610ed8565b91506113df60208401610ed8565b90509250929050565b600080600080600060a0868803121561140057600080fd5b61140986610ed8565b945061141760208701610ed8565b93506040860135925060608601359150608086013567ffffffffffffffff81111561144157600080fd5b61120e88828901611151565b60006020828403121561145f57600080fd5b610f5182610ed8565b600181811c9082168061147c57607f821691505b60208210810361149c57634e487b7160e01b600052602260045260246000fd5b50919050565b6020808252602e908201527f455243313135353a2063616c6c6572206973206e6f7420746f6b656e206f776e60408201526d195c881bdc88185c1c1c9bdd995960921b606082015260800190565b634e487b7160e01b600052603260045260246000fd5b634e487b7160e01b600052601160045260246000fd5b60006001820161152e5761152e611506565b5060010190565b808201808211156102f7576102f7611506565b601f8211156105e157600081815260208120601f850160051c8101602086101561156f5750805b601f850160051c820191505b818110156108ff5782815560010161157b565b815167ffffffffffffffff8111156115a8576115a8610f58565b6115bc816115b68454611468565b84611548565b602080601f8311600181146115f157600084156115d95750858301515b600019600386901b1c1916600185901b1785556108ff565b600085815260208120601f198616915b8281101561162057888601518255948401946001909101908401611601565b508582101561163e5787850151600019600388901b60f8161c191681555b5050505050600190811b01905550565b60208082526025908201527f455243313135353a207472616e7366657220746f20746865207a65726f206164604082015264647265737360d81b606082015260800190565b6020808252602a908201527f455243313135353a20696e73756666696369656e742062616c616e636520666f60408201526939103a3930b739b332b960b11b606082015260800190565b6040815260006116f060408301856112e6565b828103602084015261170281856112e6565b95945050505050565b6001600160a01b0386811682528516602082015260a060408201819052600090611737908301866112e6565b828103606084015261174981866112e6565b9050828103608084015261175d8185611063565b98975050505050505050565b60006020828403121561177b57600080fd5b8151610f5181610f1e565b600060033d111561179f5760046000803e5060005160e01c5b90565b600060443d10156117b05790565b6040516003193d81016004833e81513d67ffffffffffffffff81602484011181841117156117e057505050505090565b82850191508151818111156117f85750505050505090565b843d87010160208285010111156118125750505050505090565b61182160208286010187610f6e565b509095945050505050565b60208082526028908201527f455243313135353a204552433131353552656365697665722072656a656374656040820152676420746f6b656e7360c01b606082015260800190565b6001600160a01b03868116825285166020820152604081018490526060810183905260a0608082018190526000906118ae90830184611063565b97965050505050505056fea2646970667358221220a95948ef462233bcc8933b302d7f5db7980fda3b56e16bf79bee7ad006760ece64736f6c63430008130033",
  "immutableReferences": {},
  "source": "// SPDX-License-Identifier: MIT\r\npragma solidity ^0.8.0;\r\n\r\nimport \"@openzeppelin/contracts/token/ERC1155/ERC1155.sol\";\r\nimport \"@openzeppelin/contracts/access/Ownable.sol\";\r\n\r\ncontract MyNFT is ERC1155, Ownable {\r\n    uint256 private _currentTokenId = 0;\r\n    uint8 public constant NUM_TRAITS = 8;\r\n\r\n    constructor(string memory uri) ERC1155(uri) {}\r\n\r\n    function mint(\r\n        address account,\r\n        uint8 trait,\r\n        uint256 amount\r\n    ) public onlyOwner {\r\n        require(trait < NUM_TRAITS, \"Invalid trait\");\r\n\r\n        _mint(account, _currentTokenId + trait, amount, \"\");\r\n    }\r\n\r\n    function setURI(string memory newuri) public onlyOwner {\r\n        _setURI(newuri);\r\n    }\r\n}\r\n\r\n",
  "sourcePath": "C:\\minting-contract\\contracts\\MyNFT.sol",
  "compiler": {
    "name": "solc",
    "version": "0.8.19+commit.7dd6d404.Emscripten.clang"
  },
  "schemaVersion": "3.4.13",
  "updatedAt": "2023-03-15T17:01:32.823Z",
  "networkType": "ethereum",
  "devdoc": {
    "events": {
      "ApprovalForAll(address,address,bool)": {
        "details": "Emitted when `account` grants or revokes permission to `operator` to transfer their tokens, according to `approved`."
      },
      "TransferBatch(address,address,address,uint256[],uint256[])": {
        "details": "Equivalent to multiple {TransferSingle} events, where `operator`, `from` and `to` are the same for all transfers."
      },
      "TransferSingle(address,address,address,uint256,uint256)": {
        "details": "Emitted when `value` tokens of token type `id` are transferred from `from` to `to` by `operator`."
      },
      "URI(string,uint256)": {
        "details": "Emitted when the URI for token type `id` changes to `value`, if it is a non-programmatic URI. If an {URI} event was emitted for `id`, the standard https://eips.ethereum.org/EIPS/eip-1155#metadata-extensions[guarantees] that `value` will equal the value returned by {IERC1155MetadataURI-uri}."
      }
    },
    "kind": "dev",
    "methods": {
      "balanceOf(address,uint256)": {
        "details": "See {IERC1155-balanceOf}. Requirements: - `account` cannot be the zero address."
      },
      "balanceOfBatch(address[],uint256[])": {
        "details": "See {IERC1155-balanceOfBatch}. Requirements: - `accounts` and `ids` must have the same length."
      },
      "isApprovedForAll(address,address)": {
        "details": "See {IERC1155-isApprovedForAll}."
      },
      "owner()": {
        "details": "Returns the address of the current owner."
      },
      "renounceOwnership()": {
        "details": "Leaves the contract without owner. It will not be possible to call `onlyOwner` functions anymore. Can only be called by the current owner. NOTE: Renouncing ownership will leave the contract without an owner, thereby removing any functionality that is only available to the owner."
      },
      "safeBatchTransferFrom(address,address,uint256[],uint256[],bytes)": {
        "details": "See {IERC1155-safeBatchTransferFrom}."
      },
      "safeTransferFrom(address,address,uint256,uint256,bytes)": {
        "details": "See {IERC1155-safeTransferFrom}."
      },
      "setApprovalForAll(address,bool)": {
        "details": "See {IERC1155-setApprovalForAll}."
      },
      "supportsInterface(bytes4)": {
        "details": "See {IERC165-supportsInterface}."
      },
      "transferOwnership(address)": {
        "details": "Transfers ownership of the contract to a new account (`newOwner`). Can only be called by the current owner."
      },
      "uri(uint256)": {
        "details": "See {IERC1155MetadataURI-uri}. This implementation returns the same URI for *all* token types. It relies on the token type ID substitution mechanism https://eips.ethereum.org/EIPS/eip-1155#metadata[defined in the EIP]. Clients calling this function must replace the `\\{id\\}` substring with the actual token type ID."
      }
    },
    "version": 1
  },
  "userdoc": {
    "kind": "user",
    "methods": {},
    "version": 1
  }
}